:020000040800F2
:10000000F008002075010008B90E0008190A000860
:1000100000000000000000000000000000000000E0
:10002000000000000000000000000000E9150008CA
:100030000000000000000000650F0008D920000843
:10004000A501000800000000A5010008A5010008A6
:10005000A5010008A5010008A5010008A5010008E8
:1000600000000000A5010008A5010008A501000886
:10007000A5010008A5010008A50100080000000076
:10008000A501000800000000000000007D28000815
:10009000A501000871290008A50100081D0A000833
:1000A000A5010008A5010008A5010008A501000898
:1000B000A501000800F002F800F030F80CA030C8EC
:1000C000083824182D18A246671EAB4654465D46D4
:1000D000AC4201D100F022F87E460F3E0FCCB6466E
:1000E0000126334200D0FB1AA246AB4633431847E1
:1000F00014300000343000000023002400250026C6
:10010000103A01D378C1FBD8520700D330C100D5D3
:100110000B6070471FB51FBD10B510BD00F0A6F9EC
:100120001146FFF7F7FF02F0F5FE00F0BEF903B449
:10013000FFF7F2FF03BC00F0C5F9000070B50546FB
:100140000C46164602E00FCC0FC5103E102EFAD218
:10015000082E02D303CC03C5083E042E07D301CCDE
:1001600001C5361F03E021782970641C6D1C761EC2
:10017000F9D270BD0F4880F308880F480168090E56
:100180000E4A914205D10E480E4901600E480F49B2
:1001900001600F4880470F480047FEE7FEE7FEE793
:1001A000FEE7FEE7FEE700000B480C490C4A0D4B4A
:1001B00070470000F0080020040000001F0000004D
:1001C0001810024001000000000001400000000083
:1001D00085220008B5000008F0020020F008002089
:1001E000F0040020F0040020F8B5042A2CD3830783
:1001F00012D00B78491C0370401C521E83070BD091
:100200000B78491C0370401C521E830704D00B78E6
:10021000491C0370401C521E8B079B0F05D0C91A46
:10022000DF002023DE1B08C90AE0FFF787FFF8BDC7
:100230001D4608C9FD401C46B4402C4310C0121F87
:10024000042AF5D2F308C91A521EF0D40B78491CBF
:100250000370401C521EEAD40B78491C0370401CEA
:10026000012AE4D409780170F8BD01E004C0091F37
:100270000429FBD28B0701D50280801CC90700D05E
:100280000270704700290BD0C30702D00270401CD7
:10029000491E022904D3830702D50280801C891ECF
:1002A000E3E70022EEE70022DFE70378C278194691
:1002B000437812061B0219438378C0781B04194344
:1002C00011430902090A000608437047020A087030
:1002D0004A70020C8A70020ECA707047002203092D
:1002E0008B422CD3030A8B4211D300239C464EE051
:1002F00003460B433CD4002243088B4231D303090D
:100300008B421CD3030A8B4201D394463FE0C309BE
:100310008B4201D3CB01C01A524183098B4201D3D6
:100320008B01C01A524143098B4201D34B01C01AC1
:10033000524103098B4201D30B01C01A5241C30839
:100340008B4201D3CB00C01A524183088B4201D3A8
:100350008B00C01A524143088B4201D34B00C01A94
:100360005241411A00D201465241104670475DE0A9
:10037000CA0F00D04942031000D34042534000222C
:100380009C4603098B422DD3030A8B4212D3FC22D5
:10039000890112BA030A8B420CD3890192118B4254
:1003A00008D3890192118B4204D389013AD092116A
:1003B00000E08909C3098B4201D3CB01C01A524125
:1003C00083098B4201D38B01C01A524143098B42EE
:1003D00001D34B01C01A524103098B4201D30B01D7
:1003E000C01A5241C3088B4201D3CB00C01A5241FC
:1003F00083088B4201D38B00C01A5241D9D24308E3
:100400008B4201D34B00C01A5241411A00D201461F
:10041000634652415B10104601D34042002B00D589
:100420004942704763465B1000D3404201B500204B
:10043000C046C04602BD7047704770470102C215F2
:1004400004D00123DB071943002A0ADB9E239A1AF2
:1004500002D40846D0407047FF2241001206914264
:1004600001D900207047C017C0437047754600F09F
:1004700025F8AE46050069465346C008C0008546CB
:1004800018B020B5FFF790FE60BC00274908B646BB
:100490000026C0C5C0C5C0C5C0C5C0C5C0C5C0C593
:1004A000C0C5403D49008D46704710B50446C04662
:1004B000C0462046FFF73BFE10BD000000487047D5
:1004C0008C02002001491820ABBEFEE72600020086
:1004D000704770B58C180578401C6B075B0F01D115
:1004E0000378401C2A1106D10278401C03E00678EC
:1004F000401C0E70491C5B1EF9D12B0705D400234C
:10050000521E0DD40B70491CFAE70378401CCB1A1D
:10051000921C03E01D780D70491C5B1C521EF9D51E
:10052000A142D8D3002070BD10B53F48407A0028C2
:1005300035D13D48807A042804DA3B48817A00208E
:1005400000F074F83848017BC27A080210437D211C
:10055000C900884208DC3448027BC37A1002184381
:100560000146002000F06AF82F48807D042804DA54
:100570002D48817D012000F059F82B48017EC27D75
:10058000080210437D21C900884208DC2648027E0B
:10059000C37D100218430146012000F04FF82248A5
:1005A0000930007E00283DD11F480930407E0428D4
:1005B00005DA1D480930417E022000F037F81A485C
:1005C0000930C17E827E080210437D21C900884225
:1005D00009DC15480930C27E837E100218430146AB
:1005E000022000F02BF810482D304078042805DA5E
:1005F0000D482D304178032000F018F80A482D30BE
:10060000C1788278080210437D21C900884209DC44
:1006100005482D30C2788378100218430146032024
:1006200000F00CF810BD00008001002070B50446F9
:100630000D462946204602F015F970BD70B50446F6
:100640000D460349085D294602F0B2F870BD00006E
:10065000DC0000200149C860704700000020024013
:1006600030B5044604250B20000400F0A5F805462B
:10067000042D17D10C480069022108430A4908617A
:1006800008464461006940210843074908610B207E
:10069000000400F091F805460348006902218843F0
:1006A00001490861284630BD0020024004200D4960
:1006B000C968C907C90F002901D0012010E0094904
:1006C000C96810221140002901D0022008E0054924
:1006D000C96804221140002901D0032000E0042051
:1006E0007047000000200240002806D00649096833
:1006F00010221143044A116005E0034909681022E1
:100700009143014A116070470020024078B50646C7
:100710000C460425002000900B20000400F04CF84B
:100720000546042D24D113480069012108431149CD
:10073000086134800B20000400F03EF80546042DCB
:1007400010D1B01C0090200C009908800B200004F0
:1007500000F032F8054607480069400840000549A6
:10076000086105E00348006940084000014908614C
:10077000284678BD0020024001460020044A106847
:100780004008400002460A431046014A1060704784
:10079000002002400548006980210840002804D05C
:1007A00003480249486003484860704700200240FF
:1007B00023016745AB89EFCD10B503460424FFF74D
:1007C00075FF044603E0FFF771FF04465B1E012C32
:1007D00001D1002BF7D1002B00D10524204610BDFC
:1007E000F7B586B004460E460898271800200490F6
:1007F0000390002501200190FFF7CCFF381B800AF1
:10080000401C04902520FFF725FF042005900020C0
:10081000039008E0039989020819FFF721FF05906A
:100820000398401C039004990398884203D26846B9
:10083000007D0428EED025460020029009E00298B1
:10084000421C8000029231582846FFF75FFF059056
:100850002D1DBD4203D26846007D0428EFD02546F9
:10086000002002900DE02A680298411C800002914D
:100870003058824204D000200190012009B0F0BD20
:100880002D1DBD4202D201980028ECD10020F5E7D1
:10089000FEB504460D4616461F462149601A8C4295
:1008A00021D00ADC1F48201800280DD00121890220
:1008B000401A0ED0401A25D110E001218902401AB9
:1008C00016D0401A1ED118E00121480400F04CFB5C
:1008D00018E00121880400F047FB13E00121C8045F
:1008E00000F042FB0EE00121080500F03DFB09E0AD
:1008F0000121480500F038FB04E00121880500F0E3
:1009000033FB00BF00BF00956846067103214171AB
:10091000C771694608988871204600F005F8FEBD49
:10092000000C0048000000B8F0B50A460021002382
:10093000002400BF3DE001258D402B4615681D4079
:100940002C469C4234D11579012D02D01579022D07
:1009500016D185684F000326BE40B54385605579A2
:100960004E00B540866835438560858801268E40F7
:10097000B5438580858896798E40B6B235438580AB
:1009800005684F000326BE40B543056015794E004B
:10099000B540066835430560C5684F000326BE4074
:1009A000B543C560D5794E00B540C6683543C560CE
:1009B000491C1029BFD3F0BDF0B5002300244D071A
:1009C000EE0E1546B5402B46CD10AE00054620353F
:1009D000AD594E07F70E0F26BE40B543CE10B600F8
:1009E00007462037BD51CD10AE003D46AD591D43E1
:1009F0002C46CD10AD003E467451F0BD024600209D
:100A0000138A0B40002B01D0012000E0002070472A
:100A1000018570478161704700BFFEE710B5042172
:100A2000714800F099F9012812D1C1036E4800F015
:100A300093F900280CD06C4800F0DCF96B49CA78B7
:100A4000091D8854081FC078401C091FC870CAE0DF
:100A50000221654800F080F9012834D1C1036248C1
:100A600000F07AF901282ED16048C07860490978F1
:100A700088420DDD5D48001D5D4A1278815C5A4850
:100A800000F0BCF95A480078401C594908700DE044
:100A900000205649C8700021534800F0AFF90021EA
:100AA000514800F011F90020514908704E48806902
:100AB000012108434C4988610846806902210843A6
:100AC000494988618FE01021474800F045F9012825
:100AD00004D11021444800F005F984E0082142487F
:100AE00000F03AF901283CD104213F4800F034F9E4
:100AF000012836D000213C4800F020F93B48C0785E
:100B0000002804D10121384800F0DEF824E03748FD
:100B1000C078032820DB3548007900281CD13348F1
:100B200080793249C87008464079487020212F48A2
:100B3000001DFFF7B6FB2D48C27840782D4BC11839
:100B40002A48001DFFF750FB28480179264800F08D
:100B500055F90120264908700821234800F0C2F801
:100B600041E02021204800F0F7F801283BD1012185
:100B70001D4800F0E3F81D48C07803282FDB1B4810
:100B8000007901282BD11948C078762827DA174830
:100B9000407916498870084680786F2817DAC97836
:100BA0008A1E12498978134BC8181049891DFFF70E
:100BB0001BFB73220F491048FFF716FB0B4988787F
:100BC00000F06AF9002802D001200849087007489F
:100BD000C178001DFFF765FB00200449C870202183
:100BE000014800F07FF810BD00540040660200206C
:100BF000C5000020F30100208001002030B589B03D
:100C000004460D460120002302224021009029487D
:100C1000FFF73EFE0120002302228021009025489C
:100C2000FFF736FE012206212248FFF7C5FE01220A
:100C300007212048FFF7C0FE1F4800F063F810208E
:100C400000F062FA0121480500F09EF900200790AB
:100C50000890059060000690002003900490059095
:100C6000642D05D02846FF389138002804D102E0D1
:100C70001248029000E000BF00BF02A90E4800F039
:100C800083F801222E210C4800F074F80C490A4820
:100C900000F028F80A49084800F026F8172001213A
:100CA0008140084A116000BF0121034800F01EF88E
:100CB00009B030BD0004004800540040895E801037
:100CC000383F000000E100E0002905D04268012320
:100CD000DB039A43426004E042680123DB031A43CA
:100CE00042607047C1617047C1617047002904D0FC
:100CF000026801231A43026003E0026852085200AE
:100D00000260704710B504460B48844209D10121A6
:100D1000480500F049F900210120400500F044F9A0
:100D200008E00121880500F03FF90021012080053D
:100D300000F03AF910BD000000540040002905D031
:100D4000426801239B031A43426004E04268012386
:100D50009B039A434260704710B50246002300206F
:100D600093691C460C402346002B01D0012000E073
:100D7000002010BD002A03D003680B43036002E08B
:100D800003688B430360704710B50A46002103686F
:100D90005B085B0003600168144B194094682402EF
:100DA00053682343194301600F2424061368A343A7
:100DB0000361036801242343036000218160C16053
:100DC0001469936923431946816083680124E4030D
:100DD00023438360D16803680B4303604168044B7D
:100DE000194053691943416010BD0000FFE0CF0076
:100DF000FF7FFF070146486AC0B2704781627047B3
:100E000010B500243AE0A1001E48081840780128D7
:100E10001BD1A1001B48405C012808D162001A4B7D
:100E2000995AA200194B9858FFF7F4FD25E0A1004C
:100E30001448405C002820D16200134B995AA2004C
:100E4000124B9858FFF7E4FD17E0A1000D48081871
:100E50004078002811D162000B4B995AA2000B4B2D
:100E60009858FFF7CBFDA20006498854A100054819
:100E7000405C0749095D074A5054641C062CC2DBDC
:100E800010BD0000D70100208C000020740000205D
:100E9000A8000020F30100200246002106E00548DA
:100EA000405C904201D101207047491C1729F6DBB4
:100EB0000020F9E7AE00002070470000C206D20E05
:100EC00001219140014A11607047000000E100E0FB
:100ED00010B5002819DA1A4A03071B0F083B9B08B4
:100EE0009B00D2588307DC0EFF23A3409A438B0755
:100EF0001B0E8407E40EA3401A43114B0407240F72
:100F0000083CA408A4001A5118E00E4A03231B024F
:100F1000D21883089B00D2588307DC0EFF23A3401E
:100F20009A438B071B0E8407E40EA3401A43054B1C
:100F3000032424021B198408A4001A5110BD0000C8
:100F40001CED00E000E100E0BFF34F8F03480449CF
:100F5000C860BFF34F8F00BFFEE700000400FA0532
:100F600000ED00E070470000002905D0054A5269F5
:100F70000243044B5A6104E0024A52698243014B26
:100F80005A61704700100240002905D0054AD26915
:100F90000243044BDA6104E0024AD2698243014B06
:100FA000DA61704700100240002905D0054A126935
:100FB0000243044B1A6104E0024A12698243014B66
:100FC0001A61704700100240002905D0054A926955
:100FD0000243044B9A6104E0024A92698243014B46
:100FE0009A61704700100240002905D0054AD26876
:100FF0000243044BDA6004E0024AD2688243014BA8
:10100000DA60704700100240194800680121084367
:101010001749086008464068164908401449486066
:1010200008460068144908401149086008460068ED
:101030000121890488430E490860084640683F2121
:10104000090488430A4948600846C06A000900014B
:10105000C8620846006B094908400549086308460C
:10106000406B4008400048630020886070470000E3
:10107000001002400CB8FF08FFFFF6FEACFEF0FFC8
:1010800010B502460021002300205111002902D191
:101090000C4C23680BE0012902D10A4C236A06E0BC
:1010A000022902D1074C636A01E0064C636BD1064A
:1010B000C90E01248C401C40002C01D0012000E00E
:1010C000002010BD00100240024840680C2108407A
:1010D000704700000010024001460020054A506899
:1010E000F02302469A43104602460A431046014A3C
:1010F00050607047001002400021024A9170114672
:1011000088707047001002400549096B1022914316
:10111000034A11631146096B0143116370470000D4
:101120000010024001460020064A506807231B02B7
:1011300002469A43104602460A431046014A50604E
:101140007047000000100240002807D007490968D6
:10115000012212061143054A116006E0034909689D
:10116000012212069143014A1160704700100240AB
:10117000074A52687B23DB039A43054B5A601A46A1
:10118000526803460B431A43014B5A6070470000F4
:101190000010024001460020044A50688008800088
:1011A00002460A431046014A506070470010024050
:1011B00038B5002000900024002500BF1120FFF763
:1011C0005FFF05460098401C009005210903009828
:1011D000884201D0002DF1D01120FFF751FF0028E7
:1011E00001D0012400E00024204638BD10B50121C3
:1011F000002001F037FB0021012001F033FB10BD7E
:1012000010B50121002001F02DFB0121084601F05D
:1012100029FB10BD10B50021084601F023FB012178
:10122000084601F01FFB10BD10B50221002001F09F
:1012300019FB0121084601F015FB10BD10B5022174
:10124000002001F00FFB0021012001F00BFB10BD7D
:1012500010B50221002001F005FB0221012001F060
:1012600001FB10BD10B50021084601F0FBFA022178
:10127000012001F0F7FA10BD10B50121002001F0A6
:10128000F1FA0221012001F0EDFA10BD10B504467B
:10129000A100024A5058804710BD000020010020E4
:1012A00010B51348017BC27A080210437D21C900A2
:1012B000884209DC0E4A137BD47A1A022243114673
:1012C0000C4A107801F074FA0948017EC27D0802C8
:1012D00010437D21C900884209DC054A137ED47D74
:1012E0001A0222431146034A507801F061FA10BDF8
:1012F00080010020DC00002010B50348FEF7D5FF78
:101300000249C86210BD00008D010020002000408D
:101310000EB501210802FFF737FE184801F0D6FB91
:10132000684601F0DFFD164916480068FEF7D6FF53
:10133000401E81B2684601800021018141807D20EC
:10134000C00001906846817269460C4801F08CFD2E
:1013500001210A4801F094FB0021084801F082FBBA
:1013600001221146054801F046FC1320FFF7A6FDB7
:101370000121024801F08AFB0EBD00000020004060
:1013800040420F00C800002010B50121022001F0EA
:1013900069FA0021032001F065FA10BD10B50121A2
:1013A000022001F05FFA0121032001F05BFA10BD79
:1013B00010B50021022001F055FA0121032001F0AF
:1013C00051FA10BD10B50221084601F04BFA012177
:1013D000032001F047FA10BD10B50221084601F0C4
:1013E00041FA0021032001F03DFA10BD10B50221A1
:1013F000084601F037FA0221032001F033FA10BD4C
:1014000010B50021022001F02DFA0221032001F085
:1014100029FA10BD10B50121022001F023FA0221A2
:10142000032001F01FFA10BD10B50446A100024AC6
:101430005058804710BD00004001002010B51448EE
:10144000C17E827E080210437D21C900884209DCEA
:101450000F4AD37E947E1A02224311460D4A907899
:1014600001F0A6F90A482430C178827808021043B6
:101470007D21C90088420ADC054A2432D378947859
:101480001A0222431146034AD07801F091F910BDA7
:1014900089010020DC00002010B50348FEF705FF9D
:1014A0000249C86210BD0000A501002000440140AF
:1014B0000EB501214804FFF787FD184801F006FB2F
:1014C000684601F00FFD164916480068FEF706FF52
:1014D000401E81B2684601800021018141807D204B
:1014E000C00001906846817269460C4801F0BCFC5E
:1014F00001210A4801F0C4FA0021084801F0B2FABB
:1015000001221146054801F076FB1520FFF7D6FCB5
:101510000121024801F0BAFA0EBD0000004401406A
:1015200040420F00C800002010B50446002C0ED128
:101530000F4908787D21C90001F03AF90C49487833
:101540007D21C90001F034F9FFF7E2FE0FE0022C23
:101550000DD1074988787D21C90001F029F9044996
:10156000C8787D21C90001F023F9FFF7A1FF10BD64
:10157000DC00002010B51B48407A012813D119481F
:10158000807A00280FD01748807A03280BD015489E
:10159000807A012803D01348807A022803D1FFF70C
:1015A000ABFEFFF77DFE0F480930007E012817D102
:1015B0000C480930407E002812D00A480930407E8D
:1015C00003280DD007480930407E012804D0054883
:1015D0000930407E022803D1FFF75EFFFFF72EFFA0
:1015E00010BD0000800100207047000010B500F021
:1015F00019F94A48407E022804DA4848417E002012
:1016000000F090F8454819304079022805DA43483F
:1016100019304179012000F085F840481930C07B2D
:10162000022805DA3D481930C17B032000F07AF822
:101630003A481930007D022805DA38481930017D12
:10164000042000F06FF835481930407E022805DA92
:1016500032481930417E052000F064F82F481930D7
:1016600081784278080210432D49884209DC2B48D2
:10167000193082784378100218430146002000F0A8
:101680006DFB26481930C17982790802104324493C
:10169000884209DC21481930C27983791002184345
:1016A0000146012000F05AFB1C481930417C027CA5
:1016B000080210431A49884209DC18481930427C54
:1016C000037C100218430146032000F047FB134837
:1016D0001930817D427D080210431149884209DC9E
:1016E0000E481930827D437D1002184301460420C4
:1016F00000F034FB09481930C17E827E0802104395
:101700000749884209DC05481930C27E837E1002F1
:1017100018430146052000F021FB10BDA001002068
:101720001027000000B5030001F0E5FB06041729AF
:101730003B4D5F71012906D1364A12880B031A43CB
:10174000344B1A8008E0002906D1324A128801235E
:101750001B039A432F4B1A805AE0012906D12D4AC8
:10176000128801231A432B4B1A8007E0002905D168
:10177000284A128852085200264B1A8048E0012954
:1017800006D1254A128801231A43234B1A8007E009
:10179000002905D1204A1288520852001E4B1A8097
:1017A00036E0012906D11D4A128801231A431B4B3A
:1017B0001A8007E0002905D1184A12885208520001
:1017C000164B1A8024E0012906D1154A12880123FC
:1017D0001A43134B1A8007E0002905D1104A1288DA
:1017E000520852000E4B1A8012E0012906D10C4A11
:1017F000128810231A430A4B1A8007E0002905D1EA
:10180000074A128810239A43054B1A8000E000BF54
:1018100000BF00BD202C0140204401402048014071
:101820002040014070B58AB0002003460222910298
:1018300000900920C006FFF72BF800200346022283
:10184000D10100900920C006FFF722F800200346CE
:101850000122110200907A48FFF71AF8002003468F
:101860000222110200907648FFF712F8002003468A
:101870000222042100900920C006FFF709F8002089
:1018800003460222082100900920C006FFF700F855
:1018900002220B210920C006FFF78EF80222082140
:1018A0000920C006FFF788F8022209216448FFF7E3
:1018B00083F8002202210920C006FFF77DF80022EC
:1018C00003210920C006FFF777F8322528215D485B
:1018D0000068FEF703FD6908461829463046FEF702
:1018E000FDFC401E84B2584801F0F0F8564801F063
:1018F000EDF8564801F0EAF8554801F0E7F8544889
:1019000001F0E4F80121C802FFF75EFB0121C802E3
:10191000FFF75AFB01218804FFF756FB0121080459
:10192000FFF752FB01210804FFF74EFB07A801F067
:10193000D9FA2721684681830021C18308948184D4
:1019400008A8817107A9404801F08EFA07A93E480E
:1019500001F08AFA07A93F4801F086FA07A93B4837
:1019600001F082FA07A93A4801F07EFA07A938483F
:1019700001F07AFA02A801F06DFA6021684601814F
:10198000049400214181818181820821C182490121
:1019900001830021418302A92B4801F023FA02A907
:1019A000294801F033F902A9284801F02FF902A9CA
:1019B000274801F02BF902A9254801F071F901210E
:1019C000214801F05DF801211F4801F059F801217B
:1019D0001E4801F055F801211D4801F051F8012180
:1019E0001B4801F04DF80121174801F04FF8012183
:1019F000154801F04BF80121144801F047F8012186
:101A0000134801F043F80121114801F03FF801218A
:101A10000D4801F049F801210B4801F045F801217A
:101A20000A4801F041F80121094801F03DF801217F
:101A3000074801F039F800F063FC0AB070BD0000FF
:101A400000040048C8000020002C0140004801406C
:101A5000004001400044014010B57748407E022814
:101A600004DA7548417E0020FFF75CFE72481930A9
:101A70004079022805DA7048193041790120FFF7D2
:101A800051FE6D481930C07B022805DA6A481930CA
:101A9000C17B0320FFF746FE67481930007D02280E
:101AA00005DA65481930017D0420FFF73BFE6248E6
:101AB0001930407E022805DA5F481930417E052042
:101AC000FFF730FE5C4819308178427808021043F5
:101AD0005A49884209DC5848193082784378100204
:101AE00018430146002000F039F953481930C179F4
:101AF0008279080210435149884209DC4E48193066
:101B0000C2798379100218430146012000F026F9BA
:101B100049481930417C027C0802104347498842F9
:101B200009DC45481930427C037C10021843014609
:101B3000032000F013F940481930817D427D0802EE
:101B400010433E49884209DC3B481930827D437D81
:101B5000100218430146042000F000F936481930FD
:101B6000C17E827E080210433449884209DC324833
:101B70001930C27E837E100218430146052000F012
:101B8000EDF82D4819300179C27808021043B428C5
:101B900009DC294819300279C3781002184301463C
:101BA000002000F04DF824481930417A027A0802EA
:101BB0001043B42809DC20481930427A037A100215
:101BC00018430146012000F03BF81B481930C17C46
:101BD000827C08021043B42809DC17481930C27C03
:101BE000837C100218430146032000F029F81248B4
:101BF0001930017EC27D08021043B42809DC0E486A
:101C00001930027EC37D100218430146042000F003
:101C100017F809481930417F027F08021043B428A1
:101C200009DC05481930427F037F10021843014642
:101C3000052000F005F810BDA001002010270000CD
:101C4000F3B583B00646B00031183C4808188178D7
:101C500042780802104302900498B42801DDB420B1
:101C60000490374801683748006801F0E3F90746F7
:101C7000FEF7E4FB80B204994843B4210190FEF7DB
:101C800037FB07462E480068FEF7D8FB381885B2A8
:101C900028212D480068FEF721FB029949084718C2
:101CA00038460299FEF71AFB401E84B2330001F059
:101CB00022F906040E19232D3741214669430846AF
:101CC0007D21C900FEF714FB2049086033E021465E
:101CD000694308467D21C900FEF70AFB1B494039CC
:101CE000486328E02146694308467D21C900FEF784
:101CF000FFFA174948631EE02146694308467D21E3
:101D0000C900FEF7F5FA1349486314E02146694318
:101D100008467D21C900FEF7EBFA0F4948630AE047
:101D20002146694308467D21C900FEF7E1FA0A49C8
:101D3000886300E000BF00BF05B0F0BDB90100201E
:101D40007001002074010020C8000020402C0140D8
:101D5000004401400048014000400140F8B50546FC
:101D60000C462B0001F0C7F8060416283A4C5E70AA
:101D7000282137480068FEF7B1FA2646E10F891995
:101D80004910471821463846FEF7A8FA401E314947
:101D9000C8625AE028212E480068FEF79FFA2646BE
:101DA000E10F89194910471821463846FEF796FA7F
:101DB000401E2849C86248E0282125480068FEF7EF
:101DC0008DFA2646E10F89194910471821463846F1
:101DD000FEF784FA401E2049C86236E028211C48DC
:101DE0000068FEF77BFA2646E10F8919491047186B
:101DF00021463846FEF772FA401E1849C86224E0B0
:101E0000282113480068FEF769FA2646E10F891970
:101E10004910471821463846FEF760FA401E10491F
:101E2000C86212E028210A480068FEF757FA2646E1
:101E3000E10F89194910471821463846FEF74EFA36
:101E4000401E0749C86200E000BF00BFF8BD0000A7
:101E5000C8000020002C014000440140004801401F
:101E60000040014000B59DB02248FEF71EFA22490D
:101E7000884206D173221F492048FEF7B1FCFFF7C4
:101E800063F81C48FEF711FA00280FD174221B4991
:101E90006846FEF753F91748FEF707FA00907322D9
:101EA00069461648FEF79CFCFFF74EF81148FEF70E
:101EB000FCF901280ED1742210496846FEF73EF95C
:101EC0000C48007A6946087273220C48FEF788FCB9
:101ED000FFF73AF807490A48FEF7F8F90948007889
:101EE000012804D100F07CF80020064908701DB0DC
:101EF00000BD000080010020C7B6F60000FC00080D
:101F00007CB66F00660200200CB5002001900090A6
:101F1000314800680121090408432F49086000BFC7
:101F20002D48006801214904084000900198401C98
:101F300001900098002804D10521090301988842E6
:101F4000EED125480068012149040840002802D04C
:101F50000120009001E0002000900098012839D174
:101F600011201E4908601C4840681B49486008460B
:101F700040684860084640687F21C9038843164985
:101F80004860084640681121090408431249486026
:101F9000084600680121090608430F49086000BF90
:101FA0000D4800680121490608400028F8D00A4879
:101FB000406880088000084948600846406802215F
:101FC00008430549486000BF034840680C210840A9
:101FD0000828F9D10CBD000000100240002002408A
:101FE000F8B53748007A002809DD3548007A7F289F
:101FF00005DC3349087A6421FEF700FE03E0642122
:102000004B20FEF7FBFD002443E0A1002C48573095
:102010000818407802282CDAA100294857300818FF
:102020008078032825DAA100254857300818C078A1
:1020300002281EDAA100224857300818C07821492A
:10204000085CA6001E4D573575190090AD781E4EE0
:10205000735DA6001A4D573575196D781B4E725D6C
:1020600065001B4E715BA5001A4E7059FEF710FCFF
:102070000EE014480078144D0090AB78134D2A7888
:102080006500134E715BA500124E7059FEF700FCFF
:10209000641C062CB9DB00F035FAFFF7A7FA0848F4
:1020A000407A012802D10020FFF73EFA04480930A7
:1020B000007E012802D10220FFF736FAF8BD0000A9
:1020C000800100209D0000209A0000209800002040
:1020D0008C00002074000020F8B54848027BC37AC9
:1020E0001002184301464648FEF702F984B24548FB
:1020F00001684548006800F09DFF0746FEF79EF91D
:1021000081B23E48827B437B1002184341430091D9
:10211000B4210098FEF7ECF807463A480068FEF74D
:102120008DF980B23818604306467D21C900FEF75C
:10213000DFF885B23548026840680023511C5841D9
:10214000324A11605060114608684968304A136885
:102150005268C01A9141002358405940084313D097
:102160002A48016840682A4B0CCB891A9841002202
:10217000691A824108D32148807A01283DD10102A1
:102180002448FEF747FC38E0204801684068204AB0
:1021900013685268C91A90410022691A824113D209
:1021A0001A48016840681A4B0CCB8A1A98410021E2
:1021B000121B884108D21148807A01281DD10102E2
:1021C0001448FEF725FC18E0104801684068104AE2
:1021D00013685268C91A90410022091B90410CD320
:1021E0000648807A012803D101020A48FEF710FC54
:1021F000064908684968064A03C2F8BDB9010020CB
:10220000204E00007001002074010020A00000207A
:10221000780100200004004810B5FEF7F5FE01200B
:10222000FEF76AFF00BFFEF7C3FF0028FBD00120C6
:10223000FEF75AFA0120FEF79FFA0020FEF74CFF46
:102240000020FEF76FFF012109050811FEF790FF3E
:102250000120FEF779FF00BF1920FEF711FF0028CB
:10226000FAD00220FEF796FF00BFFEF72DFF0828E8
:10227000FBD102480249086010BD0000006CDC027E
:10228000C800002010B51B48006801210843194907
:1022900008600846406818490840164948600846E2
:1022A0000068164908401349086008460068012183
:1022B000890488430F490860084640683F210904A3
:1022C00088430C4948600846C06A00090001C8629A
:1022D0000846006BFF2154318843064908630846CD
:1022E000406B40084000486300208860FFF70CFE08
:1022F00010BD0000001002400CB8FF08FFFFF6FE02
:1023000010B50C490C480068FDF7E8FF0446601E54
:102310000A49884200D90CE0601E0949486103213E
:10232000081FFEF7D5FD00200549886107200861D8
:1023300000BF10BD204E0000C8000020FFFFFF00BE
:1023400000E000E010B50121C9030448FEF760FB7E
:10235000012189030148FEF75DFB10BD0004004820
:1023600010B50121C9030448FEF754FB012189037C
:102370000148FEF74DFB10BD0004004810B50121D7
:10238000C9030448FEF746FB012189030148FEF713
:1023900041FB10BD0004004810B50121C9030448E9
:1023A000FEF736FB012189030148FEF731FB10BD22
:1023B0000004004810B5012109030920C006FEF7FA
:1023C00027FB08210148FEF725FB10BD000400484B
:1023D00010B5012109030920C006FEF71BFB0821E7
:1023E0000148FEF715FB10BD0004004810B501219F
:1023F00009030920C006FEF70DFB08210148FEF77E
:1024000009FB10BD0004004810B501210903092093
:10241000C006FEF7FDFA08210148FEF7F9FA10BDE3
:102420000004004810B5012149030448FEF7F0FA02
:10243000012109030148FEF7EDFA10BD0004004830
:1024400010B5012149030448FEF7E4FA012109030C
:102450000148FEF7DDFA10BD0004004810B5012167
:1024600049030448FEF7D6FA012109030148FEF7A3
:10247000D1FA10BD0004004810B5012149030448F9
:10248000FEF7C6FA012109030148FEF7C1FA10BDA3
:102490000004004810B501210920C006FEF7B8FA73
:1024A00004210248FEF7B6FA10BD000000040048FF
:1024B00010B501210920C006FEF7ACFA042102483C
:1024C000FEF7A6FA10BD00000004004810B5012177
:1024D0000920C006FEF79EFA04210248FEF79AFA88
:1024E00010BD00000004004810B501210920C006FD
:1024F000FEF78EFA04210248FEF78AFA10BD0000AA
:102500000004004808B500F0B1F80121002000F0F7
:1025100059F80121042000F055F80121082000F0AD
:1025200051F801210C2000F04DF800200346012253
:10253000D10300902248FEF7ABF9002003460122A8
:10254000910300901E48FEF7A3F9002003460122E4
:10255000110300900920C006FEF79AF900200346F7
:102560000122082100901648FEF792F9FFF714FFA8
:10257000FFF74AFF00200346012251030090104854
:10258000FEF786F9002003460122110300900C4853
:10259000FEF77EF900200346012211460090092033
:1025A000C006FEF775F900200346012204210090C1
:1025B0000348FEF76DF9FFF75FFFFFF795FF08BDD2
:1025C00000040048002811D1012906D1264A1288AA
:1025D00001231A43244B1A8045E0002943D1224AA3
:1025E000128852085200204B1A803CE0042811D176
:1025F000012906D11C4A128810231A431A4B1A804B
:1026000031E000292FD1184A128810239A43164B23
:102610001A8028E0082812D1012906D1124A12880E
:1026200043011A43104B1A801DE000291BD10E4AAA
:102630001288FF2301339A430B4B1A8013E00C28B6
:1026400011D1012906D1084A12880B031A43064BFF
:102650001A8008E0002906D1034A128801231B03CF
:102660009A43014B1A8070472004004030B589B06E
:102670004A48FDF71AFE7D21C90088420AD347481F
:10268000FDF713FE4649884204D84448FDF70DFE85
:10269000044601E07D24E4006108424A126888187B
:1026A0002146FDF71BFE401E85B23F4800F00EFAA2
:1026B000002003460222102100903C48FEF7E8F873
:1026C000002003460222202100903848FEF7E0F85F
:1026D000002003460222012100903448FEF7D8F87A
:1026E000002003460222114600903048FEF7D0F841
:1026F000012200212D48FEF75FF9012211462B48E7
:10270000FEF75AF9012204212848FEF755F9012263
:1027100005212648FEF750F901210220FEF734FC7E
:1027200006A800F0DFFB002168460183418307957E
:10273000018408A8817006A91B4800F095FB01A838
:1027400000F088FB60216846818003950021C180EC
:102750000181018208214182490181820021C182D7
:1027600001A9114800F052FA01A90F4800F098FAA7
:1027700001A90D4800F0EAFA01A90B4800F032FB6C
:102780000121094800F07CF90121074800F07EF999
:102790000121054800F088F909B030BD840100200E
:1027A000A0860100C800002000040040000400488A
:1027B000F8B504460D462748FDF777FD7D21C90091
:1027C00088420AD32348FDF770FD2349884204D884
:1027D0002048FDF76AFD074601E07D27FF007908E4
:1027E0001E4A126888183946FDF778FD401E86B2E9
:1027F000002C09D13146694308467D21C900FDF707
:102800006DFD1749486323E0042C09D13146694323
:1028100008467D21C900FDF761FD1149886317E075
:10282000082C09D13146694308467D21C900FDF7CE
:1028300055FD0B49C8630BE00C2C09D131466943A7
:1028400008467D21C900FDF749FD05494031086072
:10285000F8BD000084010020A0860100C80000200F
:102860000004004070B504460D462101024A891853
:10287000AA008858804770BDE000002010B50121F3
:10288000364800F0A5F9012863D13548407A01287F
:102890005FD13348807A012803D03148807A0228FA
:1028A00057D12F481130FDF700FD002843D02D48A7
:1028B0000078FEF7EBFC2A48807A012816D12A48D6
:1028C0000068022803D10020264908700AE0254844
:1028D0000078072803DA23480078401C00E0002035
:1028E0002049087001202049086019E01C48807ABE
:1028F000022815D11C480068012803D1002019497D
:1029000008700AE017480078002803DD15480078B1
:10291000401E00E007201349087002201249086099
:102920000F481130FDF7C1FC441E0D4911312046FE
:10293000FDF7CCFC0DE000210846FFF793FF0021D6
:102940000120FFF78FFF0422054911310748FDF7E9
:102950004BFC0121014800F096F810BD002000401A
:10296000800100206001002064010020040200209A
:1029700010B50121364800F02BF9012863D1354804
:10298000007E01285FD13348407E012803D03148C2
:10299000407E022857D12F482030FDF786FC0028C2
:1029A00043D02D480078FEF73FFD2A48407E01289D
:1029B00016D12A480068022803D100202649087051
:1029C0000AE025480078072803DA23480078401CED
:1029D00000E000202049087001202049086019E02B
:1029E0001C48407E022815D11C480068012803D1EC
:1029F0000020194908700AE017480078002803DD14
:102A000015480078401E00E0072013490870022096
:102A1000124908600F482030FDF747FC441E0D495D
:102A200020312046FDF752FC0DE000210220FFF787
:102A300019FF00210320FFF715FF0422054920316B
:102A40000748FDF7D1FB0121014800F01CF810BD3B
:102A50000044014089010020680100206C01002031
:102A60001C020020002904D0028880231A4302801F
:102A700003E00288014B1A40028070477FFF00008C
:102A8000CA4302827047CA4302827047002904D0B9
:102A9000028801231A43028003E00288014B1A4096
:102AA00002807047FEFF0000002907D04422125A1E
:102AB0000123DB031A4344231A5205E04422125A2D
:102AC00053045B0C442213527047000010B50446B7
:102AD0003748844208D10121C014FEF785FA00214D
:102AE000E014FEF781FA62E001208007844208D1F9
:102AF00001210846FEF758FA00210120FEF754FA9A
:102B000055E02C48844208D101210220FEF74CFAFE
:102B100000210220FEF748FA49E02748844208D104
:102B200001211020FEF740FA00211020FEF73CFAA8
:102B30003DE02248844208D101212020FEF734FAEA
:102B400000212020FEF730FA31E01D48844208D1F0
:102B500001218015FEF728FA0021A015FEF724FABE
:102B600025E01848844209D101210804FEF73CFA07
:102B7000002101200004FEF737FA18E012488442D1
:102B800009D101214804FEF72FFA00210120400459
:102B9000FEF72AFA0BE00D48844208D1012188048F
:102BA000FEF722FA002101208004FEF71DFA10BD75
:102BB000002C0140000400400010004000140040C0
:102BC0000020004000400140004401400048014016
:102BD00030B50246002000230024158A0D402B4604
:102BE00095890D402C46002B03D0002C01D00120EC
:102BF00000E0002030BD002A03D083890B4383818D
:102C000002E083898B4383817047000070B5002404
:102C100000220023058C1C4E35400584028C8388DD
:102C2000048B194D6F3D2C40B51E2C400D882C4354
:102C3000751E2A408D892A434D882A43134DA84288
:102C400008D0134DA84205D0124DA84202D0124D13
:102C5000A84212D10C4DED1F2A40CD892A430A4DBE
:102C6000ED1E2A408D882A43074DFF3D2B400B4D1A
:102C70002B400D8A2B434D8A2B43838004838D6820
:102C80004563028470BD0000FEFF0000002C01407F
:102C9000004001400044014000480140FFFD0000A9
:102CA00070B5002400220023058C214E3540058498
:102CB000028C8388048B1F4D2C401F4D2C400D78B7
:102CC0002D062D0C2C431A4D103D2A408D892D05C3
:102CD0002D0C2A434D882D052D0C2A43174DA84253
:102CE00002D0174DA8421CD1164D2B400D8AAD04C1
:102CF0002D0C2B43114DA84213D10D4D703D2A4090
:102D0000CD892D052D0C2A43094D303D2A408D8853
:102D10002D052D0C2A430C4D2B404D8AAD042D0C56
:102D20002B43838004838D688563028470BD00001B
:102D3000EFFF0000FF8F0000FFFC0000002C0140AF
:102D400000400140FFFB0000FFF7000070B50024C9
:102D500000220023058C1C4E35400584028C83889C
:102D6000848B194D90352C40174DFD352C400D8826
:102D70002C43164D2A400D7B2D062D0C2A438D78B1
:102D80002D062D0C2A43124DA84217D1114D2A4071
:102D90008D7B2D062D0C2A430F4D2A400D792D06D3
:102DA0002D0C2A430D4D2B400D4D2B400D8A2D052A
:102DB0002D0C2B434D8A2D052D0C2B4383808483B2
:102DC0008D68C563028470BDFFFE0000FFFD00003A
:102DD000002C0140FFF70000FFFB0000FFEF0000A8
:102DE000FFDF000070B5002200230024058C134E85
:102DF00035400584038C8488828B114D2A40114D07
:102E00002A400D782D062D0C2A430F4D2B400D7BAB
:102E10002D072D0C2B438D782D072D0C2B430B4D9F
:102E2000A84205D10A4D2C400D8AAD052D0C2C432E
:102E3000848082838D680564038470BDFFEF000089
:102E4000FF8F0000FFFC0000FFDF0000002C0140AE
:102E5000FFBF00000021018041808180816081816D
:102E6000C18101824182704700220288154B98423D
:102E700006D001239B07984202D0134B984203D1FE
:102E8000124B1A404B881A43114B984203D0114BF6
:102E90001A400B891A4302804B68C3620B88038572
:102EA000084B984208D00C4B984205D00B4B9842E7
:102EB00002D00B4B984201D18B7A03860123838287
:102EC00070470000002C0140000400408FFF00000C
:102ED00000100040FFFC00000040014000440140A1
:102EE000004801400021C943416000210180018167
:102EF00041808172704730B47446641E2578641C2A
:102F0000AB4204D3635D5B00E31830BC18471D4639
:102F1000F8E700004B24FFF77FF973221B491C4898
:102F2000FDF762F91A48007A002805DD1848007A92
:102F30007F2801DC1648047A1548FDF7B6F91549D3
:102F4000884204D0732214491148FDF74DF9104806
:102F5000047201461148FDF7B9F90D496F31104867
:102F6000FDF7B4F973220A490E48FDF73DF9FFF762
:102F700037F809E0FEF776FFFEF76EFDFDF7D4FAAD
:102F8000FEF7F8FAFDF73CFFF4E7000000FC00084C
:102F900080010020C7B6F600000000207CB66F005C
:102FA00021041620F301002070B501250400ED076F
:102FB0004C4020D4441A01D2001B0919C60D4B0005
:102FC000F2B2FF2A29D01B0E2CD000020C02D31A19
:102FD0002C43DC402843051910D2280A02D3401C98
:102FE0006D0611D0761EF6058019FF2A00DA70BD35
:102FF000C00DC00570BD694000F022F801200543F6
:10300000C541521C761CE8E764089C40C901614038
:103010008900E7D10124A043E4E71B0E440200D05D
:10302000034870BD002AFCD1C00FC00770BD00BFAF
:103030000000C07F70B501250400ED074C4022D48C
:10304000441A02D26C40001B0919C60D4B00F2B2A3
:10305000FF2A4BD01B0E50D000020C02D31A2C4377
:10306000DC40A843051B05D5AD0019D36D08761EBD
:10307000521E37D0F605280A01D2801970BD704162
:103080006D0603D070BD6940FFF794FF9C400902B4
:103090006140490001D0401E70BD0124A04370BDB5
:1030A0006D081DD001202B0C01D12D0410302B0EEA
:1030B00001D12D0208302B0F01D12D01001DAB0FC6
:1030C00001D1AD00801CEB0F01D16D00401C6D00E3
:1030D000361A121A680AF5054019012A02DB70BD7A
:1030E000002070BDC036300AC00770BD1B0E440200
:1030F00001D1FF2B00D1024870BD002AF0D070BD75
:103100000000C07F24310008000000208001000082
:10311000D20400080032000880010020700700007F
:10312000F8000008147CB66F23E803124B7603F412
:1031300001881309220C12320A195A05110B1202C6
:103140000104252104162012043A480421C904125E
:10315000081304801240122022101C010102059164
:10316000501D575B5F63676B0915212D58595A5CD9
:103170005D5E60616264656668696A6C6D6E1B6C39
:10318000DC3061100901020304060708091604086F
:103190000C7D231B0861041A45041A99041AED04D6
:1031A0001AB5041AD1041309241B085D041A41043A
:1031B0001A25041A79041ACD041A95041AB1041AAE
:1031C000E90413ED11140801121B0815041A29044F
:1031D0001A3D041A51041A65041A79041389131B41
:1031E000089D041AB1041AC5041AD9041AED041B67
:1031F0000114341904011223C84183FA420000006B
:040000050800017579
:00000001FF
